{
  "contractName": "Auction",
  "abi": [
    {
      "constant": true,
      "inputs": [],
      "name": "NUMBER",
      "outputs": [
        {
          "name": "",
          "type": "uint256"
        }
      ],
      "payable": false,
      "stateMutability": "view",
      "type": "function"
    },
    {
      "constant": true,
      "inputs": [],
      "name": "chairMan",
      "outputs": [
        {
          "name": "",
          "type": "address"
        }
      ],
      "payable": false,
      "stateMutability": "view",
      "type": "function"
    },
    {
      "inputs": [],
      "payable": false,
      "stateMutability": "nonpayable",
      "type": "constructor"
    },
    {
      "constant": false,
      "inputs": [],
      "name": "openRight",
      "outputs": [],
      "payable": false,
      "stateMutability": "nonpayable",
      "type": "function"
    },
    {
      "constant": false,
      "inputs": [],
      "name": "closeRight",
      "outputs": [],
      "payable": false,
      "stateMutability": "nonpayable",
      "type": "function"
    },
    {
      "constant": false,
      "inputs": [
        {
          "name": "newPerson",
          "type": "address"
        }
      ],
      "name": "giveRightToAuctor",
      "outputs": [],
      "payable": false,
      "stateMutability": "nonpayable",
      "type": "function"
    },
    {
      "constant": false,
      "inputs": [
        {
          "name": "newPerson",
          "type": "address"
        }
      ],
      "name": "takeRightToAuctor",
      "outputs": [],
      "payable": false,
      "stateMutability": "nonpayable",
      "type": "function"
    },
    {
      "constant": false,
      "inputs": [
        {
          "name": "name",
          "type": "string"
        },
        {
          "name": "value",
          "type": "uint256"
        },
        {
          "name": "des",
          "type": "string"
        }
      ],
      "name": "askCreateAuction",
      "outputs": [],
      "payable": false,
      "stateMutability": "nonpayable",
      "type": "function"
    },
    {
      "constant": true,
      "inputs": [],
      "name": "getThingInfo",
      "outputs": [
        {
          "name": "",
          "type": "string"
        },
        {
          "name": "",
          "type": "uint256"
        },
        {
          "name": "",
          "type": "address"
        },
        {
          "name": "",
          "type": "string"
        },
        {
          "name": "",
          "type": "bool"
        }
      ],
      "payable": false,
      "stateMutability": "view",
      "type": "function"
    },
    {
      "constant": false,
      "inputs": [
        {
          "name": "value",
          "type": "uint256"
        }
      ],
      "name": "putValue",
      "outputs": [],
      "payable": false,
      "stateMutability": "nonpayable",
      "type": "function"
    },
    {
      "constant": false,
      "inputs": [],
      "name": "makeTheTransaction",
      "outputs": [],
      "payable": false,
      "stateMutability": "nonpayable",
      "type": "function"
    },
    {
      "constant": false,
      "inputs": [],
      "name": "delayAuction",
      "outputs": [],
      "payable": false,
      "stateMutability": "nonpayable",
      "type": "function"
    },
    {
      "constant": true,
      "inputs": [],
      "name": "getNowOwnAuction",
      "outputs": [
        {
          "name": "",
          "type": "string"
        },
        {
          "name": "",
          "type": "uint256"
        },
        {
          "name": "",
          "type": "bool"
        }
      ],
      "payable": false,
      "stateMutability": "view",
      "type": "function"
    }
  ],
  "bytecode": "0x608060405234801561001057600080fd5b5033600260006101000a81548173ffffffffffffffffffffffffffffffffffffffff021916908373ffffffffffffffffffffffffffffffffffffffff160217905550600080819055506126e8806100686000396000f3006080604052600436106100ba576000357c0100000000000000000000000000000000000000000000000000000000900463ffffffff16806315da64ba146100bf578063352aa97f1461016157806340775a3e146101a45780634b6b1a18146101cf5780635aa00b55146101e6578063660ba936146101fd5780639bc9e7511461033e578063b22fe4bd14610355578063cf9f3d621461036c578063de928ef614610399578063f0b7782814610452578063fca298de146104a9575b600080fd5b3480156100cb57600080fd5b506100d46104ec565b604051808060200184815260200183151515158152602001828103825285818151815260200191508051906020019080838360005b83811015610124578082015181840152602081019050610109565b50505050905090810190601f1680156101515780820380516001836020036101000a031916815260200191505b5094505050505060405180910390f35b34801561016d57600080fd5b506101a2600480360381019080803573ffffffffffffffffffffffffffffffffffffffff16906020019092919050505061072a565b005b3480156101b057600080fd5b506101b96109fe565b6040518082815260200191505060405180910390f35b3480156101db57600080fd5b506101e4610a04565b005b3480156101f257600080fd5b506101fb610af9565b005b34801561020957600080fd5b50610212610bed565b60405180806020018681526020018573ffffffffffffffffffffffffffffffffffffffff1673ffffffffffffffffffffffffffffffffffffffff1681526020018060200184151515158152602001838103835288818151815260200191508051906020019080838360005b8381101561029857808201518184015260208101905061027d565b50505050905090810190601f1680156102c55780820380516001836020036101000a031916815260200191505b50838103825285818151815260200191508051906020019080838360005b838110156102fe5780820151818401526020810190506102e3565b50505050905090810190601f16801561032b5780820380516001836020036101000a031916815260200191505b5097505050505050505060405180910390f35b34801561034a57600080fd5b50610353610ebc565b005b34801561036157600080fd5b5061036a6111d8565b005b34801561037857600080fd5b50610397600480360381019080803590602001909291905050506114e5565b005b3480156103a557600080fd5b50610450600480360381019080803590602001908201803590602001908080601f016020809104026020016040519081016040528093929190818152602001838380828437820191505050505050919291929080359060200190929190803590602001908201803590602001908080601f016020809104026020016040519081016040528093929190818152602001838380828437820191505050505050919291929050505061197e565b005b34801561045e57600080fd5b50610467611b69565b604051808273ffffffffffffffffffffffffffffffffffffffff1673ffffffffffffffffffffffffffffffffffffffff16815260200191505060405180910390f35b3480156104b557600080fd5b506104ea600480360381019080803573ffffffffffffffffffffffffffffffffffffffff169060200190929190505050611b8f565b005b60606000803373ffffffffffffffffffffffffffffffffffffffff16600560003373ffffffffffffffffffffffffffffffffffffffff1673ffffffffffffffffffffffffffffffffffffffff16815260200190815260200160002060040160009054906101000a900473ffffffffffffffffffffffffffffffffffffffff1673ffffffffffffffffffffffffffffffffffffffff161415156105ad576000600160206040519081016040528060008152509190819150925092509250610725565b600560003373ffffffffffffffffffffffffffffffffffffffff1673ffffffffffffffffffffffffffffffffffffffff168152602001908152602001600020600001600560003373ffffffffffffffffffffffffffffffffffffffff1673ffffffffffffffffffffffffffffffffffffffff16815260200190815260200160002060020154600560003373ffffffffffffffffffffffffffffffffffffffff1673ffffffffffffffffffffffffffffffffffffffff16815260200190815260200160002060030160149054906101000a900460ff16828054600181600116156101000203166002900480601f0160208091040260200160405190810160405280929190818152602001828054600181600116156101000203166002900480156107175780601f106106ec57610100808354040283529160200191610717565b820191906000526020600020905b8154815290600101906020018083116106fa57829003601f168201915b505050505092509250925092505b909192565b600260009054906101000a900473ffffffffffffffffffffffffffffffffffffffff1673ffffffffffffffffffffffffffffffffffffffff163373ffffffffffffffffffffffffffffffffffffffff16141515610815576040517f08c379a00000000000000000000000000000000000000000000000000000000081526004018080602001828103825260348152602001807f4f6e6c79207468652063686169726d616e20686173207468652072696768742081526020017f746f2063616c6c207468652066756e6374696f6e00000000000000000000000081525060400191505060405180910390fd5b600260009054906101000a900473ffffffffffffffffffffffffffffffffffffffff1673ffffffffffffffffffffffffffffffffffffffff168173ffffffffffffffffffffffffffffffffffffffff16141515156108db576040517f08c379a00000000000000000000000000000000000000000000000000000000081526004018080602001828103825260178152602001807f536f7272792c2043686169726d616e2063616e206e6f7400000000000000000081525060200191505060405180910390fd5b60011515600360008373ffffffffffffffffffffffffffffffffffffffff1673ffffffffffffffffffffffffffffffffffffffff16815260200190815260200160002060009054906101000a900460ff1615151415156109a3576040517f08c379a000000000000000000000000000000000000000000000000000000000815260040180806020018281038252601c8152602001807f54686520706572736f6e2068617320676f74207468652072696768740000000081525060200191505060405180910390fd5b6000600360008373ffffffffffffffffffffffffffffffffffffffff1673ffffffffffffffffffffffffffffffffffffffff16815260200190815260200160002060006101000a81548160ff02191690831515021790555050565b60005481565b600260009054906101000a900473ffffffffffffffffffffffffffffffffffffffff1673ffffffffffffffffffffffffffffffffffffffff163373ffffffffffffffffffffffffffffffffffffffff16141515610aef576040517f08c379a00000000000000000000000000000000000000000000000000000000081526004018080602001828103825260258152602001807f4f6e6c79207468652063686169726d616e2063616e20636c6f7365207468652081526020017f726967687400000000000000000000000000000000000000000000000000000081525060400191505060405180910390fd5b6000600181905550565b600260009054906101000a900473ffffffffffffffffffffffffffffffffffffffff1673ffffffffffffffffffffffffffffffffffffffff163373ffffffffffffffffffffffffffffffffffffffff16141515610be4576040517f08c379a00000000000000000000000000000000000000000000000000000000081526004018080602001828103825260248152602001807f4f6e6c79207468652063686169726d616e2063616e206f70656e20746865207281526020017f696768740000000000000000000000000000000000000000000000000000000081525060400191505060405180910390fd5b60018081905550565b60606000806060600080600054148015610c0c57506000600480549050145b15610c985760008060016040805190810160405280600481526020017f4e554c4c000000000000000000000000000000000000000000000000000000008152509291908292506040805190810160405280600481526020017f4e554c4c000000000000000000000000000000000000000000000000000000008152509094509450945094509450610eb5565b6004600054815481101515610ca957fe5b90600052602060002090600502016000016004600054815481101515610ccb57fe5b9060005260206000209060050201600201546004600054815481101515610cee57fe5b906000526020600020906005020160040160009054906101000a900473ffffffffffffffffffffffffffffffffffffffff166004600054815481101515610d3157fe5b90600052602060002090600502016001016004600054815481101515610d5357fe5b906000526020600020906005020160030160149054906101000a900460ff16848054600181600116156101000203166002900480601f016020809104026020016040519081016040528092919081815260200182805460018160011615610100020316600290048015610e075780601f10610ddc57610100808354040283529160200191610e07565b820191906000526020600020905b815481529060010190602001808311610dea57829003601f168201915b50505050509450818054600181600116156101000203166002900480601f016020809104026020016040519081016040528092919081815260200182805460018160011615610100020316600290048015610ea35780601f10610e7857610100808354040283529160200191610ea3565b820191906000526020600020905b815481529060010190602001808311610e8657829003601f168201915b50505050509150945094509450945094505b9091929394565b600260009054906101000a900473ffffffffffffffffffffffffffffffffffffffff1673ffffffffffffffffffffffffffffffffffffffff163373ffffffffffffffffffffffffffffffffffffffff16141515610fa7576040517f08c379a00000000000000000000000000000000000000000000000000000000081526004018080602001828103825260358152602001807f4f6e6c79207468652063686169726d616e206861732061636365737320746f2081526020017f6d616b65207468652061756374696f6e206f766572000000000000000000000081525060400191505060405180910390fd5b600060048054905014151515611025576040517f08c379a00000000000000000000000000000000000000000000000000000000081526004018080602001828103825260188152602001807f5468657265206973206e6f7420616e792061756374696f6e000000000000000081525060200191505060405180910390fd5b60001515600460005481548110151561103a57fe5b906000526020600020906005020160030160149054906101000a900460ff1615151415156110f6576040517f08c379a000000000000000000000000000000000000000000000000000000000815260040180806020018281038252603e8152602001807f5468652070726573656e742061756374696f6e206861732066696e697368656481526020017f2c77616974696e6720666f7220746865206e657874207374617274696e67000081525060400191505060405180910390fd5b6001600460005481548110151561110957fe5b906000526020600020906005020160030160146101000a81548160ff021916908315150217905550600160056000600460005481548110151561114857fe5b906000526020600020906005020160040160009054906101000a900473ffffffffffffffffffffffffffffffffffffffff1673ffffffffffffffffffffffffffffffffffffffff1673ffffffffffffffffffffffffffffffffffffffff16815260200190815260200160002060030160146101000a81548160ff0219169083151502179055506111d6611e64565b565b6000806000600260009054906101000a900473ffffffffffffffffffffffffffffffffffffffff1673ffffffffffffffffffffffffffffffffffffffff163373ffffffffffffffffffffffffffffffffffffffff16141515156112c9576040517f08c379a000000000000000000000000000000000000000000000000000000000815260040180806020018281038252602d8152602001807f536f7272792c207468652063686169726d616e2063616e206e6f742064656c6181526020017f79207468652061756374696f6e0000000000000000000000000000000000000081525060400191505060405180910390fd5b6000925060009150600090505b6004805490508110156113a9573373ffffffffffffffffffffffffffffffffffffffff1660048281548110151561130957fe5b906000526020600020906005020160040160009054906101000a900473ffffffffffffffffffffffffffffffffffffffff1673ffffffffffffffffffffffffffffffffffffffff1614801561138f57506000151560048281548110151561136c57fe5b906000526020600020906005020160030160149054906101000a900460ff161515145b1561139c57600192508091505b80806001019150506112d6565b821515611444576040517f08c379a000000000000000000000000000000000000000000000000000000000815260040180806020018281038252602b8152602001807f4e6f206f6e6520746f2064656c6179206f72207468652061756374696f6e206881526020017f61732066696e697368656400000000000000000000000000000000000000000081525060400191505060405180910390fd5b600160048381548110151561145557fe5b906000526020600020906005020160030160146101000a81548160ff0219169083151502179055506001600560003373ffffffffffffffffffffffffffffffffffffffff1673ffffffffffffffffffffffffffffffffffffffff16815260200190815260200160002060030160146101000a81548160ff0219169083151502179055506114e0611e64565b505050565b600060048054905014151515611589576040517f08c379a00000000000000000000000000000000000000000000000000000000081526004018080602001828103825260258152602001807f5468657265206973206e6f7420616e797468696e67206973206265696e67206181526020017f756374656400000000000000000000000000000000000000000000000000000081525060400191505060405180910390fd5b60001515600460005481548110151561159e57fe5b906000526020600020906005020160030160149054906101000a900460ff16151514151561165a576040517f08c379a00000000000000000000000000000000000000000000000000000000081526004018080602001828103825260378152602001807f5468652070726573656e742061756374696f6e206973206f76657220616e642081526020017f746865206e65787420646f6573206e6f7420737461727400000000000000000081525060400191505060405180910390fd5b600460005481548110151561166b57fe5b90600052602060002090600502016002015481111515611719576040517f08c379a000000000000000000000000000000000000000000000000000000000815260040180806020018281038252603c8152602001807f546865726520686173206265656e2061206869676865722070726963652c796f81526020017f75722073686f756c64207075742061206869676865722070726963650000000081525060400191505060405180910390fd5b803373ffffffffffffffffffffffffffffffffffffffff16311115156117a7576040517f08c379a00000000000000000000000000000000000000000000000000000000081526004018080602001828103825260198152602001807f596f75206c656674206574686572206e6f7420656e6f7567680000000000000081525060200191505060405180910390fd5b8060046000548154811015156117b957fe5b9060005260206000209060050201600201819055503360046000548154811015156117e057fe5b906000526020600020906005020160030160006101000a81548173ffffffffffffffffffffffffffffffffffffffff021916908373ffffffffffffffffffffffffffffffffffffffff1602179055503360056000600460005481548110151561184557fe5b906000526020600020906005020160040160009054906101000a900473ffffffffffffffffffffffffffffffffffffffff1673ffffffffffffffffffffffffffffffffffffffff1673ffffffffffffffffffffffffffffffffffffffff16815260200190815260200160002060030160006101000a81548173ffffffffffffffffffffffffffffffffffffffff021916908373ffffffffffffffffffffffffffffffffffffffff1602179055508060056000600460005481548110151561190857fe5b906000526020600020906005020160040160009054906101000a900473ffffffffffffffffffffffffffffffffffffffff1673ffffffffffffffffffffffffffffffffffffffff1673ffffffffffffffffffffffffffffffffffffffff1681526020019081526020016000206002018190555050565b600260009054906101000a900473ffffffffffffffffffffffffffffffffffffffff1673ffffffffffffffffffffffffffffffffffffffff163373ffffffffffffffffffffffffffffffffffffffff1614151515611a6a576040517f08c379a00000000000000000000000000000000000000000000000000000000081526004018080602001828103825260308152602001807f536f7272792c7468652063686169726d616e2063616e206e6f7420707574206681526020017f6f727761726420612041756374696f6e0000000000000000000000000000000081525060400191505060405180910390fd5b60011515600360003373ffffffffffffffffffffffffffffffffffffffff1673ffffffffffffffffffffffffffffffffffffffff16815260200190815260200160002060009054906101000a900460ff161515141515611b58576040517f08c379a00000000000000000000000000000000000000000000000000000000081526004018080602001828103825260368152602001807f536f7279792c20796f752068617665206e6f742074686520726967687420746f81526020017f2070757420666f727761726420612061756374696f6e0000000000000000000081525060400191505060405180910390fd5b611b6483838333611efb565b505050565b600260009054906101000a900473ffffffffffffffffffffffffffffffffffffffff1681565b600260009054906101000a900473ffffffffffffffffffffffffffffffffffffffff1673ffffffffffffffffffffffffffffffffffffffff163373ffffffffffffffffffffffffffffffffffffffff16141515611c7a576040517f08c379a00000000000000000000000000000000000000000000000000000000081526004018080602001828103825260348152602001807f4f6e6c79207468652063686169726d616e20686173207468652072696768742081526020017f746f2063616c6c207468652066756e6374696f6e00000000000000000000000081525060400191505060405180910390fd5b600260009054906101000a900473ffffffffffffffffffffffffffffffffffffffff1673ffffffffffffffffffffffffffffffffffffffff168173ffffffffffffffffffffffffffffffffffffffff1614151515611d40576040517f08c379a00000000000000000000000000000000000000000000000000000000081526004018080602001828103825260178152602001807f536f7272792c2043686169726d616e2063616e206e6f7400000000000000000081525060200191505060405180910390fd5b60011515600360008373ffffffffffffffffffffffffffffffffffffffff1673ffffffffffffffffffffffffffffffffffffffff16815260200190815260200160002060009054906101000a900460ff16151514151515611e09576040517f08c379a000000000000000000000000000000000000000000000000000000000815260040180806020018281038252601c8152602001807f54686520706572736f6e2068617320676f74207468652072696768740000000081525060200191505060405180910390fd5b6001600360008373ffffffffffffffffffffffffffffffffffffffff1673ffffffffffffffffffffffffffffffffffffffff16815260200190815260200160002060006101000a81548160ff02191690831515021790555050565b600080600160048054905003101515611e8b57600160048054905003600081905550611e93565b600080819055505b600090505b600480549050811015611ef85760001515600482815481101515611eb857fe5b906000526020600020906005020160030160149054906101000a900460ff1615151415611eeb5780600081905550611ef8565b8080600101915050611e98565b50565b6000611f05612532565b600060018054141515611f80576040517f08c379a00000000000000000000000000000000000000000000000000000000081526004018080602001828103825260198152602001807f54686520726967687420686173206265656e20636c6f7365640000000000000081525060200191505060405180910390fd5b600192508682600001819052508582604001818152505083826060019073ffffffffffffffffffffffffffffffffffffffff16908173ffffffffffffffffffffffffffffffffffffffff16815250506000826080019015159081151581525050848260200181905250838260a0019073ffffffffffffffffffffffffffffffffffffffff16908173ffffffffffffffffffffffffffffffffffffffff1681525050600090505b6004805490508110156120fa5760048181548110151561204257fe5b906000526020600020906005020160040160009054906101000a900473ffffffffffffffffffffffffffffffffffffffff1673ffffffffffffffffffffffffffffffffffffffff168260a0015173ffffffffffffffffffffffffffffffffffffffff161480156120e35750600015156004828154811015156120c057fe5b906000526020600020906005020160030160149054906101000a900460ff161515145b156120ed57600092505b8080600101915050612026565b821515612195576040517f08c379a00000000000000000000000000000000000000000000000000000000081526004018080602001828103825260278152602001807f536f7272792c20746865726520686173206265656e20612061756374696f6e2081526020017f666f7220796f750000000000000000000000000000000000000000000000000081525060400191505060405180910390fd5b6004829080600181540180825580915050906001820390600052602060002090600502016000909192909190915060008201518160000190805190602001906121df929190612597565b5060208201518160010190805190602001906121fc929190612597565b506040820151816002015560608201518160030160006101000a81548173ffffffffffffffffffffffffffffffffffffffff021916908373ffffffffffffffffffffffffffffffffffffffff16021790555060808201518160030160146101000a81548160ff02191690831515021790555060a08201518160040160006101000a81548173ffffffffffffffffffffffffffffffffffffffff021916908373ffffffffffffffffffffffffffffffffffffffff1602179055505050506122c0611e64565b8160000151600560008673ffffffffffffffffffffffffffffffffffffffff1673ffffffffffffffffffffffffffffffffffffffff168152602001908152602001600020600001908051906020019061231a929190612617565b508160800151600560008673ffffffffffffffffffffffffffffffffffffffff1673ffffffffffffffffffffffffffffffffffffffff16815260200190815260200160002060030160146101000a81548160ff0219169083151502179055508160a00151600560008673ffffffffffffffffffffffffffffffffffffffff1673ffffffffffffffffffffffffffffffffffffffff16815260200190815260200160002060040160006101000a81548173ffffffffffffffffffffffffffffffffffffffff021916908373ffffffffffffffffffffffffffffffffffffffff1602179055508160400151600560008673ffffffffffffffffffffffffffffffffffffffff1673ffffffffffffffffffffffffffffffffffffffff168152602001908152602001600020600201819055508160600151600560008673ffffffffffffffffffffffffffffffffffffffff1673ffffffffffffffffffffffffffffffffffffffff16815260200190815260200160002060030160006101000a81548173ffffffffffffffffffffffffffffffffffffffff021916908373ffffffffffffffffffffffffffffffffffffffff1602179055508160200151600560008673ffffffffffffffffffffffffffffffffffffffff1673ffffffffffffffffffffffffffffffffffffffff1681526020019081526020016000206001019080519060200190612528929190612617565b5050505050505050565b60c060405190810160405280606081526020016060815260200160008152602001600073ffffffffffffffffffffffffffffffffffffffff168152602001600015158152602001600073ffffffffffffffffffffffffffffffffffffffff1681525090565b828054600181600116156101000203166002900490600052602060002090601f016020900481019282601f106125d857805160ff1916838001178555612606565b82800160010185558215612606579182015b828111156126055782518255916020019190600101906125ea565b5b5090506126139190612697565b5090565b828054600181600116156101000203166002900490600052602060002090601f016020900481019282601f1061265857805160ff1916838001178555612686565b82800160010185558215612686579182015b8281111561268557825182559160200191906001019061266a565b5b5090506126939190612697565b5090565b6126b991905b808211156126b557600081600090555060010161269d565b5090565b905600a165627a7a7230582095d07d5408a6e240415bb9d14779676468bce401ad8cee0a6e6c9bac0bd87fba0029",
  "source": "pragma solidity ^0.4.17;\r\ncontract Auction{\r\n    struct AuctThing{\r\n\t\t//\r\n        string nameThing;\r\n\t\t//\r\n        string describion;\r\n\t\t//\r\n        uint latestVaule;\r\n\t\t//\r\n        address latestAuctor;\r\n\t\t//\r\n        bool hasFinished;\r\n\t\t//\r\n        address owner;\r\n    }\r\n    uint256 public NUMBER;\r\n\r\n\t//\r\n    uint256 private giveRigth;\r\n\r\n    //\r\n    address public chairMan;\r\n\r\n\t//\r\n    mapping(address => bool) private canPutAuction;\r\n\r\n\t//\r\n    AuctThing[] private allThing;\r\n\r\n\t//\r\n    mapping(address => AuctThing) private TofA;\r\n\r\n    //\r\n    //event Instructor(address name,uint age);\r\n\r\n    //\r\n    constructor() public{\r\n        chairMan = msg.sender;\r\n        NUMBER = 0;\r\n    } \r\n\r\n\t//\r\n    function openRight() public {\r\n        require(msg.sender==chairMan,\"Only the chairman can open the right\");\r\n        giveRigth = 1;\r\n    }\r\n\r\n\t//\r\n    function closeRight() public {\r\n        require(msg.sender==chairMan,\"Only the chairman can close the right\");\r\n        giveRigth = 0;\r\n    }\r\n\r\n\t//chairman\r\n    function giveRightToAuctor(address newPerson) public {\r\n        require(msg.sender==chairMan,\"Only the chairman has the right to call the function\");\r\n        require(newPerson != chairMan,\t\"Sorry, Chairman can not\");\r\n        require(canPutAuction[newPerson]!=true,\"The person has got the right\");\r\n        //emit Instructor(newPerson,1);\r\n        canPutAuction[newPerson] = true;\r\n    }\r\n\r\n    //\r\n    function takeRightToAuctor(address newPerson) public {\r\n        require(msg.sender==chairMan,\"Only the chairman has the right to call the function\");\r\n        require(newPerson != chairMan,\t\"Sorry, Chairman can not\");\r\n        require(canPutAuction[newPerson]==true,\"The person has got the right\");\r\n        //emit Instructor(newPerson,2);\r\n        canPutAuction[newPerson] = false;\r\n    }\r\n\r\n\t//\r\n    function askCreateAuction(string memory name,uint value,string memory des) public{\r\n        require(msg.sender != chairMan,\"Sorry,the chairman can not put forward a Auction\");\r\n        require(canPutAuction[msg.sender] == true,\"Soryy, you have not the right to put forward a auction\");\r\n        createAuction(name,value,des,msg.sender);\r\n    }\r\n\r\n\t//chairman\r\n    function createAuction(string memory name,uint value,string memory des,address caller) private{\r\n        require(giveRigth == 1,\"The right has been closed\");\r\n        bool notExisted = true;\r\n        AuctThing memory newAuction;\r\n        newAuction.nameThing = name;\r\n        newAuction.latestVaule = value;\r\n        newAuction.latestAuctor = caller;\r\n        newAuction.hasFinished = false;\r\n        newAuction.describion = des;\r\n        newAuction.owner = caller;\r\n        for(uint i = 0;i < allThing.length;i++) {\r\n            if(newAuction.owner == allThing[i].owner && allThing[i].hasFinished==false) {\r\n                notExisted = false;\r\n            }\r\n        }\r\n        require(notExisted,\"Sorry, there has been a auction for you\");\r\n        allThing.push(newAuction);\r\n        UpdateNumber();\r\n        TofA[caller].nameThing = newAuction.nameThing;\r\n        TofA[caller].hasFinished = newAuction.hasFinished;\r\n        TofA[caller].owner = newAuction.owner;\r\n        TofA[caller].latestVaule = newAuction.latestVaule;\r\n        TofA[caller].latestAuctor = newAuction.latestAuctor;\r\n        TofA[caller].describion = newAuction.describion;\r\n    }\r\n\r\n\t//\r\n    function getThingInfo() public view returns(string memory , uint, address,string memory,bool) {\r\n        if(NUMBER == 0 && allThing.length == 0) {\r\n            return (\"NULL\",0,address(0),\"NULL\",true);\r\n        }\r\n        return (allThing[uint(NUMBER)].nameThing,allThing[uint(NUMBER)].latestVaule,allThing[uint(NUMBER)].owner,\r\n        allThing[uint(NUMBER)].describion,allThing[uint(NUMBER)].hasFinished);\r\n    }\r\n\r\n\t//\r\n    function UpdateNumber() private {\r\n        if(allThing.length-1>=0) NUMBER = allThing.length-1;\r\n        else NUMBER = 0;\r\n        for(uint i = 0;i < allThing.length;i++) {\r\n            if(allThing[i].hasFinished==false) {\r\n                NUMBER = i;\r\n                break;\r\n            }\r\n        }\r\n    }\r\n\r\n\t//\r\n    function putValue(uint value) public{\r\n        require(allThing.length!=0,\"There is not anything is being aucted\");\r\n        require(allThing[uint(NUMBER)].hasFinished==false,\"The present auction is over and the next does not start\");\r\n        require(value > allThing[uint(NUMBER)].latestVaule,\"There has been a higher price,your should put a higher price\");\r\n        require(msg.sender.balance > value,\"You left ether not enough\"); \r\n\r\n        allThing[uint(NUMBER)].latestVaule = value;\r\n        allThing[uint(NUMBER)].latestAuctor = msg.sender;\r\n        TofA[allThing[uint(NUMBER)].owner].latestAuctor = msg.sender;\r\n        TofA[allThing[uint(NUMBER)].owner].latestVaule = value;\r\n    }\r\n\r\n\t//\r\n    function makeTheTransaction() public {\r\n        require(msg.sender==chairMan,\"Only the chairman has access to make the auction over\");\r\n        require(allThing.length != 0,\"There is not any auction\");\r\n        require(allThing[uint(NUMBER)].hasFinished==false,\"The present auction has finished,waiting for the next starting\");\r\n        allThing[uint(NUMBER)].hasFinished = true;\r\n        TofA[allThing[uint(NUMBER)].owner].hasFinished = true;\r\n        UpdateNumber();\r\n    }\r\n\r\n\t//\r\n    function delayAuction() public{\r\n        require(msg.sender!=chairMan,\"Sorry, the chairman can not delay the auction\");\r\n        bool canDelay = false;\r\n        uint d = 0;\r\n        for(uint i = 0;i < allThing.length;i++) {\r\n            if(allThing[i].owner==msg.sender&&allThing[i].hasFinished==false) {\r\n                canDelay = true;\r\n                d = i;\r\n            }\r\n        }\r\n        require(canDelay,\"No one to delay or the auction has finished\");\r\n        allThing[d].hasFinished = true;\r\n        TofA[msg.sender].hasFinished = true;\r\n        UpdateNumber();\r\n    }\r\n\r\n\t//\r\n    function getNowOwnAuction() public view returns(string memory,uint,bool) {\r\n        if(TofA[msg.sender].owner!=msg.sender) return (\"\",0,true);\r\n        else return (TofA[msg.sender].nameThing,TofA[msg.sender].latestVaule,TofA[msg.sender].hasFinished);\r\n    }\r\n\r\n}",
  "sourcePath": "C:\\Users\\Administrator\\Desktop\\demo\\contracts\\Auction.sol",
  "compiler": {
    "name": "solc",
    "version": "0.4.24+commit.e67f0147.Emscripten.clang"
  },
  "schemaVersion": "2.0.0",
  "updatedAt": "2018-12-31T05:29:42.082Z"
}